{
    "contractName": "AuditingFinal",
    "abi": [
        {
            "inputs": [],
            "stateMutability": "nonpayable",
            "type": "constructor"
        },
        {
            "inputs": [
                {
                    "internalType": "string",
                    "name": "",
                    "type": "string"
                }
            ],
            "name": "auditDatabase",
            "outputs": [
                {
                    "internalType": "string",
                    "name": "cloudDataName",
                    "type": "string"
                },
                {
                    "internalType": "string",
                    "name": "username",
                    "type": "string"
                }
            ],
            "stateMutability": "view",
            "type": "function"
        },
        {
            "inputs": [
                {
                    "internalType": "string",
                    "name": "cloudDataID",
                    "type": "string"
                }
            ],
            "name": "getAuditDatabase",
            "outputs": [
                {
                    "internalType": "string[]",
                    "name": "",
                    "type": "string[]"
                },
                {
                    "internalType": "string",
                    "name": "",
                    "type": "string"
                },
                {
                    "internalType": "string",
                    "name": "",
                    "type": "string"
                }
            ],
            "stateMutability": "view",
            "type": "function"
        },
        {
            "inputs": [
                {
                    "internalType": "string",
                    "name": "cloudDataID",
                    "type": "string"
                }
            ],
            "name": "getMerkleRoot",
            "outputs": [
                {
                    "internalType": "string[]",
                    "name": "",
                    "type": "string[]"
                }
            ],
            "stateMutability": "view",
            "type": "function"
        },
        {
            "inputs": [],
            "name": "getUsername",
            "outputs": [
                {
                    "internalType": "string",
                    "name": "",
                    "type": "string"
                }
            ],
            "stateMutability": "view",
            "type": "function"
        },
        {
            "inputs": [
                {
                    "internalType": "string",
                    "name": "_username",
                    "type": "string"
                },
                {
                    "internalType": "bool",
                    "name": "value",
                    "type": "bool"
                }
            ],
            "name": "register",
            "outputs": [],
            "stateMutability": "nonpayable",
            "type": "function"
        },
        {
            "inputs": [],
            "name": "sayHello",
            "outputs": [
                {
                    "internalType": "string",
                    "name": "",
                    "type": "string"
                }
            ],
            "stateMutability": "view",
            "type": "function"
        },
        {
            "inputs": [
                {
                    "internalType": "string",
                    "name": "cloudDataID",
                    "type": "string"
                },
                {
                    "internalType": "string[]",
                    "name": "_hashtags",
                    "type": "string[]"
                },
                {
                    "internalType": "string",
                    "name": "_cloudDataName",
                    "type": "string"
                },
                {
                    "internalType": "string",
                    "name": "_username",
                    "type": "string"
                }
            ],
            "name": "setAuditDatabase",
            "outputs": [],
            "stateMutability": "nonpayable",
            "type": "function"
        },
        {
            "inputs": [],
            "name": "signIn",
            "outputs": [
                {
                    "internalType": "bool",
                    "name": "Calldata",
                    "type": "bool"
                }
            ],
            "stateMutability": "nonpayable",
            "type": "function"
        },
        {
            "inputs": [],
            "name": "user",
            "outputs": [
                {
                    "internalType": "address",
                    "name": "",
                    "type": "address"
                }
            ],
            "stateMutability": "view",
            "type": "function"
        },
        {
            "inputs": [
                {
                    "internalType": "address",
                    "name": "",
                    "type": "address"
                }
            ],
            "name": "users",
            "outputs": [
                {
                    "internalType": "bool",
                    "name": "registered",
                    "type": "bool"
                },
                {
                    "internalType": "bool",
                    "name": "signedIn",
                    "type": "bool"
                },
                {
                    "internalType": "string",
                    "name": "username",
                    "type": "string"
                }
            ],
            "stateMutability": "view",
            "type": "function"
        }
    ],
    "bytecode": "60c0604052600860808190526773617948656c6c6f60c01b60a09081526200002b916001919062000080565b503480156200003957600080fd5b50600080546001600160a01b031916339081178255815260026020526040808220805460ff1916905581546001600160a01b031682529020805461ff001916905562000163565b8280546200008e9062000126565b90600052602060002090601f016020900481019282620000b25760008555620000fd565b82601f10620000cd57805160ff1916838001178555620000fd565b82800160010185558215620000fd579182015b82811115620000fd578251825591602001919060010190620000e0565b506200010b9291506200010f565b5090565b5b808211156200010b576000815560010162000110565b600181811c908216806200013b57607f821691505b602082108114156200015d57634e487b7160e01b600052602260045260246000fd5b50919050565b61103b80620001736000396000f3fe608060405234801561001057600080fd5b506004361061009e5760003560e01c80639e4cda43116100665780639e4cda4314610143578063a87430ba1461015b578063b28d20341461017d578063ef5fb05b14610190578063f6e0ee65146101b457600080fd5b806343f02989146100a35780634f8632ba146100cc57806363bdb791146100f7578063681f3e6d146101195780638f294da61461012e575b600080fd5b6100b66100b1366004610c41565b6101d5565b6040516100c39190610e99565b60405180910390f35b6000546100df906001600160a01b031681565b6040516001600160a01b0390911681526020016100c3565b61010a610105366004610c41565b6102c7565b6040516100c393929190610eac565b610121610524565b6040516100c39190610f1b565b61014161013c366004610da6565b61063a565b005b61014b610723565b60405190151581526020016100c3565b61016e610169366004610c13565b6107c9565b6040516100c393929190610eef565b61014161018b366004610c7c565b61087b565b60408051808201909152600881526773617948656c6c6f60c01b6020820152610121565b6101c76101c2366004610c41565b610923565b6040516100c3929190610f2e565b60606003826040516101e79190610e7d565b908152604080519182900360209081018320805480830285018301909352828452919060009084015b828210156102bc57838290600052602060002001805461022f90610fb4565b80601f016020809104026020016040519081016040528092919081815260200182805461025b90610fb4565b80156102a85780601f1061027d576101008083540402835291602001916102a8565b820191906000526020600020905b81548152906001019060200180831161028b57829003601f168201915b505050505081526020019060010190610210565b505050509050919050565b60608060606003846040516102dc9190610e7d565b908152604051908190036020018120906003906102fa908790610e7d565b908152602001604051809103902060010160038660405161031b9190610e7d565b908152602001604051809103902060020182805480602002602001604051908101604052809291908181526020016000905b828210156103f957838290600052602060002001805461036c90610fb4565b80601f016020809104026020016040519081016040528092919081815260200182805461039890610fb4565b80156103e55780601f106103ba576101008083540402835291602001916103e5565b820191906000526020600020905b8154815290600101906020018083116103c857829003601f168201915b50505050508152602001906001019061034d565b50505050925081805461040b90610fb4565b80601f016020809104026020016040519081016040528092919081815260200182805461043790610fb4565b80156104845780601f1061045957610100808354040283529160200191610484565b820191906000526020600020905b81548152906001019060200180831161046757829003601f168201915b5050505050915080805461049790610fb4565b80601f01602080910402602001604051908101604052809291908181526020018280546104c390610fb4565b80156105105780601f106104e557610100808354040283529160200191610510565b820191906000526020600020905b8154815290600101906020018083116104f357829003601f168201915b505050505090509250925092509193909250565b600080546001600160a01b0316815260026020526040902054606090610100900460ff166105915760405162461bcd60e51b81526020600482015260156024820152742ab9b2b9103430b9b713ba1039b4b3b732b21034b760591b60448201526064015b60405180910390fd5b600080546001600160a01b0316815260026020526040902060010180546105b790610fb4565b80601f01602080910402602001604051908101604052809291908181526020018280546105e390610fb4565b80156106305780601f1061060557610100808354040283529160200191610630565b820191906000526020600020905b81548152906001019060200180831161061357829003601f168201915b5050505050905090565b600080546001600160a01b031681526002602052604090205460ff16156106c95760405162461bcd60e51b815260206004820152603c60248201527f5573657220697320616c7265616479207265676973746572656420616e64206360448201527f616e2774207265676973746572206d6f7265207468616e206f6e6365000000006064820152608401610588565b600080546001600160a01b0316815260026020908152604090912083516106f892600190920191850190610a5c565b50600080546001600160a01b03168152600260205260409020805460ff191691151591909117905550565b600080546001600160a01b031681526002602052604081205460ff1661078b5760405162461bcd60e51b815260206004820152601b60248201527f596f75206e65656420746f2072656769737465722066697273742e00000000006044820152606401610588565b50600080546001600160a01b03908116825260026020526040808320805461ff00191661010090811790915583549092168352909120540460ff1690565b6002602052600090815260409020805460018201805460ff80841694610100909404169291906107f890610fb4565b80601f016020809104026020016040519081016040528092919081815260200182805461082490610fb4565b80156108715780601f1061084657610100808354040283529160200191610871565b820191906000526020600020905b81548152906001019060200180831161085457829003601f168201915b5050505050905083565b8260038560405161088c9190610e7d565b908152602001604051809103902060000190805190602001906108b0929190610ae0565b50816003856040516108c29190610e7d565b908152602001604051809103902060010190805190602001906108e6929190610a5c565b50806003826040516108f89190610e7d565b9081526020016040518091039020600201908051906020019061091c929190610a5c565b5050505050565b8051602081830181018051600382529282019190930120915260018101805461094b90610fb4565b80601f016020809104026020016040519081016040528092919081815260200182805461097790610fb4565b80156109c45780601f10610999576101008083540402835291602001916109c4565b820191906000526020600020905b8154815290600101906020018083116109a757829003601f168201915b5050505050908060020180546109d990610fb4565b80601f0160208091040260200160405190810160405280929190818152602001828054610a0590610fb4565b8015610a525780601f10610a2757610100808354040283529160200191610a52565b820191906000526020600020905b815481529060010190602001808311610a3557829003601f168201915b5050505050905082565b828054610a6890610fb4565b90600052602060002090601f016020900481019282610a8a5760008555610ad0565b82601f10610aa357805160ff1916838001178555610ad0565b82800160010185558215610ad0579182015b82811115610ad0578251825591602001919060010190610ab5565b50610adc929150610b39565b5090565b828054828255906000526020600020908101928215610b2d579160200282015b82811115610b2d5782518051610b1d918491602090910190610a5c565b5091602001919060010190610b00565b50610adc929150610b4e565b5b80821115610adc5760008155600101610b3a565b80821115610adc576000610b628282610b6b565b50600101610b4e565b508054610b7790610fb4565b6000825580601f10610b87575050565b601f016020900490600052602060002090810190610ba59190610b39565b50565b600082601f830112610bb8578081fd5b813567ffffffffffffffff811115610bd257610bd2610fef565b610be5601f8201601f1916602001610f53565b818152846020838601011115610bf9578283fd5b816020850160208301379081016020019190915292915050565b600060208284031215610c24578081fd5b81356001600160a01b0381168114610c3a578182fd5b9392505050565b600060208284031215610c52578081fd5b813567ffffffffffffffff811115610c68578182fd5b610c7484828501610ba8565b949350505050565b60008060008060808587031215610c91578283fd5b843567ffffffffffffffff80821115610ca8578485fd5b610cb488838901610ba8565b9550602091508187013581811115610cca578586fd5b8701601f81018913610cda578586fd5b803582811115610cec57610cec610fef565b8060051b610cfb858201610f53565b8281528581019084870183860188018e1015610d15578a8bfd5b8a93505b84841015610d5257803587811115610d2f578b8cfd5b610d3d8f8a838a0101610ba8565b84525060019390930192918701918701610d19565b509850505050604088013592505080821115610d6c578384fd5b610d7888838901610ba8565b93506060870135915080821115610d8d578283fd5b50610d9a87828801610ba8565b91505092959194509250565b60008060408385031215610db8578182fd5b823567ffffffffffffffff811115610dce578283fd5b610dda85828601610ba8565b92505060208301358015158114610def578182fd5b809150509250929050565b600082825180855260208086019550808260051b840101818601855b84811015610e4457601f19868403018952610e32838351610e51565b98840198925090830190600101610e16565b5090979650505050505050565b60008151808452610e69816020860160208601610f84565b601f01601f19169290920160200192915050565b60008251610e8f818460208701610f84565b9190910192915050565b602081526000610c3a6020830184610dfa565b606081526000610ebf6060830186610dfa565b8281036020840152610ed18186610e51565b90508281036040840152610ee58185610e51565b9695505050505050565b83151581528215156020820152606060408201526000610f126060830184610e51565b95945050505050565b602081526000610c3a6020830184610e51565b604081526000610f416040830185610e51565b8281036020840152610f128185610e51565b604051601f8201601f1916810167ffffffffffffffff81118282101715610f7c57610f7c610fef565b604052919050565b60005b83811015610f9f578181015183820152602001610f87565b83811115610fae576000848401525b50505050565b600181811c90821680610fc857607f821691505b60208210811415610fe957634e487b7160e01b600052602260045260246000fd5b50919050565b634e487b7160e01b600052604160045260246000fdfea2646970667358221220ffaa453e5f568eb692208f5ba5d596860115d63e981331463c561085d347f27164736f6c63430008040033",
    "sourcePath": "/home/tobss/Desktop/FYPBlocAudit/app/contracts/AuditingFinal.sol",
    "compiler": {
        "name": "solc",
        "version": "0.8.4+commit.c7e474f2"
    },
    "functionHashes": {
        "auditDatabase(string)": "f6e0ee65",
        "getAuditDatabase(string)": "63bdb791",
        "getMerkleRoot(string)": "43f02989",
        "getUsername()": "681f3e6d",
        "register(string,bool)": "8f294da6",
        "sayHello()": "ef5fb05b",
        "setAuditDatabase(string,string[],string,string)": "b28d2034",
        "signIn()": "9e4cda43",
        "user()": "4f8632ba",
        "users(address)": "a87430ba"
    },
    "gasEstimates": {
        "creation": {
            "codeDepositCost": "831000",
            "executionCost": "infinite",
            "totalCost": "infinite"
        },
        "external": {
            "auditDatabase(string)": "infinite",
            "getAuditDatabase(string)": "infinite",
            "getMerkleRoot(string)": "infinite",
            "getUsername()": "infinite",
            "register(string,bool)": "infinite",
            "sayHello()": "infinite",
            "setAuditDatabase(string,string[],string,string)": "infinite",
            "signIn()": "25322",
            "user()": "1060",
            "users(address)": "infinite"
        }
    }
}