{
  "contractName": "AuditingFinal",
  "abi": [
    {
      "inputs": [],
      "stateMutability": "nonpayable",
      "type": "constructor"
    },
    {
      "inputs": [
        {
          "internalType": "string",
          "name": "",
          "type": "string"
        }
      ],
      "name": "auditDatabase",
      "outputs": [
        {
          "internalType": "string",
          "name": "cloudDataName",
          "type": "string"
        },
        {
          "internalType": "string",
          "name": "username",
          "type": "string"
        }
      ],
      "stateMutability": "view",
      "type": "function",
      "constant": true
    },
    {
      "inputs": [],
      "name": "user",
      "outputs": [
        {
          "internalType": "address",
          "name": "",
          "type": "address"
        }
      ],
      "stateMutability": "view",
      "type": "function",
      "constant": true
    },
    {
      "inputs": [
        {
          "internalType": "address",
          "name": "",
          "type": "address"
        }
      ],
      "name": "users",
      "outputs": [
        {
          "internalType": "bool",
          "name": "registered",
          "type": "bool"
        },
        {
          "internalType": "bool",
          "name": "signedIn",
          "type": "bool"
        },
        {
          "internalType": "string",
          "name": "username",
          "type": "string"
        }
      ],
      "stateMutability": "view",
      "type": "function",
      "constant": true
    },
    {
      "inputs": [],
      "name": "sayHello",
      "outputs": [
        {
          "internalType": "string",
          "name": "",
          "type": "string"
        }
      ],
      "stateMutability": "view",
      "type": "function",
      "constant": true
    },
    {
      "inputs": [
        {
          "internalType": "string",
          "name": "m",
          "type": "string"
        }
      ],
      "name": "sayMessage",
      "outputs": [
        {
          "internalType": "string",
          "name": "",
          "type": "string"
        }
      ],
      "stateMutability": "pure",
      "type": "function",
      "constant": true
    },
    {
      "inputs": [],
      "name": "signIn",
      "outputs": [
        {
          "internalType": "bool",
          "name": "Calldata",
          "type": "bool"
        }
      ],
      "stateMutability": "nonpayable",
      "type": "function"
    },
    {
      "inputs": [
        {
          "internalType": "string",
          "name": "_username",
          "type": "string"
        },
        {
          "internalType": "bool",
          "name": "value",
          "type": "bool"
        }
      ],
      "name": "register",
      "outputs": [],
      "stateMutability": "nonpayable",
      "type": "function"
    },
    {
      "inputs": [],
      "name": "getUsername",
      "outputs": [
        {
          "internalType": "string",
          "name": "",
          "type": "string"
        }
      ],
      "stateMutability": "view",
      "type": "function",
      "constant": true
    },
    {
      "inputs": [
        {
          "internalType": "string",
          "name": "cloudDataID",
          "type": "string"
        },
        {
          "internalType": "string[]",
          "name": "_hashtags",
          "type": "string[]"
        },
        {
          "internalType": "string",
          "name": "_cloudDataName",
          "type": "string"
        },
        {
          "internalType": "string",
          "name": "_username",
          "type": "string"
        }
      ],
      "name": "setAuditDatabase",
      "outputs": [],
      "stateMutability": "nonpayable",
      "type": "function"
    },
    {
      "inputs": [
        {
          "internalType": "string",
          "name": "cloudDataID",
          "type": "string"
        }
      ],
      "name": "getAuditDatabase",
      "outputs": [
        {
          "internalType": "string[]",
          "name": "",
          "type": "string[]"
        },
        {
          "internalType": "string",
          "name": "",
          "type": "string"
        },
        {
          "internalType": "string",
          "name": "",
          "type": "string"
        }
      ],
      "stateMutability": "view",
      "type": "function",
      "constant": true
    },
    {
      "inputs": [
        {
          "internalType": "string",
          "name": "cloudDataID",
          "type": "string"
        }
      ],
      "name": "getMerkleRoot",
      "outputs": [
        {
          "internalType": "string[]",
          "name": "",
          "type": "string[]"
        }
      ],
      "stateMutability": "view",
      "type": "function",
      "constant": true
    }
  ],
  "bytecode": "0x60806040526040518060400160405280600881526020017f73617948656c6c6f00000000000000000000000000000000000000000000000081525060019080519060200190620000519291906200019e565b503480156200005f57600080fd5b50336000806101000a81548173ffffffffffffffffffffffffffffffffffffffff021916908373ffffffffffffffffffffffffffffffffffffffff1602179055506000600260008060009054906101000a900473ffffffffffffffffffffffffffffffffffffffff1673ffffffffffffffffffffffffffffffffffffffff1673ffffffffffffffffffffffffffffffffffffffff16815260200190815260200160002060000160006101000a81548160ff0219169083151502179055506000600260008060009054906101000a900473ffffffffffffffffffffffffffffffffffffffff1673ffffffffffffffffffffffffffffffffffffffff1673ffffffffffffffffffffffffffffffffffffffff16815260200190815260200160002060000160016101000a81548160ff021916908315150217905550620002b3565b828054620001ac906200024e565b90600052602060002090601f016020900481019282620001d057600085556200021c565b82601f10620001eb57805160ff19168380011785556200021c565b828001600101855582156200021c579182015b828111156200021b578251825591602001919060010190620001fe565b5b5090506200022b91906200022f565b5090565b5b808211156200024a57600081600090555060010162000230565b5090565b600060028204905060018216806200026757607f821691505b602082108114156200027e576200027d62000284565b5b50919050565b7f4e487b7100000000000000000000000000000000000000000000000000000000600052602260045260246000fd5b61189e80620002c36000396000f3fe608060405234801561001057600080fd5b50600436106100a95760003560e01c80638f294da6116100715780638f294da61461017c5780639e4cda4314610198578063a87430ba146101b6578063b28d2034146101e8578063ef5fb05b14610204578063f6e0ee6514610222576100a9565b8063312d7296146100ae57806343f02989146100de5780634f8632ba1461010e57806363bdb7911461012c578063681f3e6d1461015e575b600080fd5b6100c860048036038101906100c39190611097565b610253565b6040516100d5919061149b565b60405180910390f35b6100f860048036038101906100f39190611097565b61025d565b60405161010591906113d4565b60405180910390f35b610116610357565b60405161012391906113b9565b60405180910390f35b61014660048036038101906101419190611097565b61037b565b604051610155939291906113f6565b60405180910390f35b6101666105db565b604051610173919061149b565b60405180910390f35b6101966004803603810190610191919061119b565b61077e565b005b6101a0610926565b6040516101ad9190611442565b60405180910390f35b6101d060048036038101906101cb919061106e565b610aca565b6040516101df9392919061145d565b60405180910390f35b61020260048036038101906101fd91906110d8565b610b96565b005b61020c610c3e565b604051610219919061149b565b60405180910390f35b61023c60048036038101906102379190611097565b610c7b565b60405161024a9291906114bd565b60405180910390f35b6060819050919050565b606060038260405161026f91906113a2565b9081526020016040518091039020600001805480602002602001604051908101604052809291908181526020016000905b8282101561034c5783829060005260206000200180546102bf906116c7565b80601f01602080910402602001604051908101604052809291908181526020018280546102eb906116c7565b80156103385780601f1061030d57610100808354040283529160200191610338565b820191906000526020600020905b81548152906001019060200180831161031b57829003601f168201915b5050505050815260200190600101906102a0565b505050509050919050565b60008054906101000a900473ffffffffffffffffffffffffffffffffffffffff1681565b606080606060038460405161039091906113a2565b90815260200160405180910390206000016003856040516103b191906113a2565b90815260200160405180910390206001016003866040516103d291906113a2565b908152602001604051809103902060020182805480602002602001604051908101604052809291908181526020016000905b828210156104b0578382906000526020600020018054610423906116c7565b80601f016020809104026020016040519081016040528092919081815260200182805461044f906116c7565b801561049c5780601f106104715761010080835404028352916020019161049c565b820191906000526020600020905b81548152906001019060200180831161047f57829003601f168201915b505050505081526020019060010190610404565b5050505092508180546104c2906116c7565b80601f01602080910402602001604051908101604052809291908181526020018280546104ee906116c7565b801561053b5780601f106105105761010080835404028352916020019161053b565b820191906000526020600020905b81548152906001019060200180831161051e57829003601f168201915b5050505050915080805461054e906116c7565b80601f016020809104026020016040519081016040528092919081815260200182805461057a906116c7565b80156105c75780601f1061059c576101008083540402835291602001916105c7565b820191906000526020600020905b8154815290600101906020018083116105aa57829003601f168201915b505050505090509250925092509193909250565b6060600260008060009054906101000a900473ffffffffffffffffffffffffffffffffffffffff1673ffffffffffffffffffffffffffffffffffffffff1673ffffffffffffffffffffffffffffffffffffffff16815260200190815260200160002060000160019054906101000a900460ff1661068d576040517f08c379a0000000000000000000000000000000000000000000000000000000008152600401610684906114f4565b60405180910390fd5b600260008060009054906101000a900473ffffffffffffffffffffffffffffffffffffffff1673ffffffffffffffffffffffffffffffffffffffff1673ffffffffffffffffffffffffffffffffffffffff16815260200190815260200160002060010180546106fb906116c7565b80601f0160208091040260200160405190810160405280929190818152602001828054610727906116c7565b80156107745780601f1061074957610100808354040283529160200191610774565b820191906000526020600020905b81548152906001019060200180831161075757829003601f168201915b5050505050905090565b600260008060009054906101000a900473ffffffffffffffffffffffffffffffffffffffff1673ffffffffffffffffffffffffffffffffffffffff1673ffffffffffffffffffffffffffffffffffffffff16815260200190815260200160002060000160009054906101000a900460ff161561082f576040517f08c379a000000000000000000000000000000000000000000000000000000000815260040161082690611514565b60405180910390fd5b81600260008060009054906101000a900473ffffffffffffffffffffffffffffffffffffffff1673ffffffffffffffffffffffffffffffffffffffff1673ffffffffffffffffffffffffffffffffffffffff16815260200190815260200160002060010190805190602001906108a6929190610dc5565b5080600260008060009054906101000a900473ffffffffffffffffffffffffffffffffffffffff1673ffffffffffffffffffffffffffffffffffffffff1673ffffffffffffffffffffffffffffffffffffffff16815260200190815260200160002060000160006101000a81548160ff0219169083151502179055505050565b6000600260008060009054906101000a900473ffffffffffffffffffffffffffffffffffffffff1673ffffffffffffffffffffffffffffffffffffffff1673ffffffffffffffffffffffffffffffffffffffff16815260200190815260200160002060000160009054906101000a900460ff166109d8576040517f08c379a00000000000000000000000000000000000000000000000000000000081526004016109cf90611534565b60405180910390fd5b6001600260008060009054906101000a900473ffffffffffffffffffffffffffffffffffffffff1673ffffffffffffffffffffffffffffffffffffffff1673ffffffffffffffffffffffffffffffffffffffff16815260200190815260200160002060000160016101000a81548160ff021916908315150217905550600260008060009054906101000a900473ffffffffffffffffffffffffffffffffffffffff1673ffffffffffffffffffffffffffffffffffffffff1673ffffffffffffffffffffffffffffffffffffffff16815260200190815260200160002060000160019054906101000a900460ff16905090565b60026020528060005260406000206000915090508060000160009054906101000a900460ff16908060000160019054906101000a900460ff1690806001018054610b13906116c7565b80601f0160208091040260200160405190810160405280929190818152602001828054610b3f906116c7565b8015610b8c5780601f10610b6157610100808354040283529160200191610b8c565b820191906000526020600020905b815481529060010190602001808311610b6f57829003601f168201915b5050505050905083565b82600385604051610ba791906113a2565b90815260200160405180910390206000019080519060200190610bcb929190610e4b565b5081600385604051610bdd91906113a2565b90815260200160405180910390206001019080519060200190610c01929190610dc5565b5080600385604051610c1391906113a2565b90815260200160405180910390206002019080519060200190610c37929190610dc5565b5050505050565b60606040518060400160405280600881526020017f73617948656c6c6f000000000000000000000000000000000000000000000000815250905090565b600381805160208101820180518482526020830160208501208183528095505050505050600091509050806001018054610cb4906116c7565b80601f0160208091040260200160405190810160405280929190818152602001828054610ce0906116c7565b8015610d2d5780601f10610d0257610100808354040283529160200191610d2d565b820191906000526020600020905b815481529060010190602001808311610d1057829003601f168201915b505050505090806002018054610d42906116c7565b80601f0160208091040260200160405190810160405280929190818152602001828054610d6e906116c7565b8015610dbb5780601f10610d9057610100808354040283529160200191610dbb565b820191906000526020600020905b815481529060010190602001808311610d9e57829003601f168201915b5050505050905082565b828054610dd1906116c7565b90600052602060002090601f016020900481019282610df35760008555610e3a565b82601f10610e0c57805160ff1916838001178555610e3a565b82800160010185558215610e3a579182015b82811115610e39578251825591602001919060010190610e1e565b5b509050610e479190610eab565b5090565b828054828255906000526020600020908101928215610e9a579160200282015b82811115610e99578251829080519060200190610e89929190610dc5565b5091602001919060010190610e6b565b5b509050610ea79190610ec8565b5090565b5b80821115610ec4576000816000905550600101610eac565b5090565b5b80821115610ee85760008181610edf9190610eec565b50600101610ec9565b5090565b508054610ef8906116c7565b6000825580601f10610f0a5750610f29565b601f016020900490600052602060002090810190610f289190610eab565b5b50565b6000610f3f610f3a84611579565b611554565b90508083825260208201905082856020860282011115610f5e57600080fd5b60005b85811015610fa857813567ffffffffffffffff811115610f8057600080fd5b808601610f8d8982611044565b85526020850194506020840193505050600181019050610f61565b5050509392505050565b6000610fc5610fc0846115a5565b611554565b905082815260208101848484011115610fdd57600080fd5b610fe8848285611685565b509392505050565b600081359050610fff8161183a565b92915050565b600082601f83011261101657600080fd5b8135611026848260208601610f2c565b91505092915050565b60008135905061103e81611851565b92915050565b600082601f83011261105557600080fd5b8135611065848260208601610fb2565b91505092915050565b60006020828403121561108057600080fd5b600061108e84828501610ff0565b91505092915050565b6000602082840312156110a957600080fd5b600082013567ffffffffffffffff8111156110c357600080fd5b6110cf84828501611044565b91505092915050565b600080600080608085870312156110ee57600080fd5b600085013567ffffffffffffffff81111561110857600080fd5b61111487828801611044565b945050602085013567ffffffffffffffff81111561113157600080fd5b61113d87828801611005565b935050604085013567ffffffffffffffff81111561115a57600080fd5b61116687828801611044565b925050606085013567ffffffffffffffff81111561118357600080fd5b61118f87828801611044565b91505092959194509250565b600080604083850312156111ae57600080fd5b600083013567ffffffffffffffff8111156111c857600080fd5b6111d485828601611044565b92505060206111e58582860161102f565b9150509250929050565b60006111fb8383611296565b905092915050565b61120c81611647565b82525050565b600061121d826115e6565b6112278185611609565b935083602082028501611239856115d6565b8060005b85811015611275578484038952815161125685826111ef565b9450611261836115fc565b925060208a0199505060018101905061123d565b50829750879550505050505092915050565b61129081611659565b82525050565b60006112a1826115f1565b6112ab818561161a565b93506112bb818560208601611694565b6112c481611788565b840191505092915050565b60006112da826115f1565b6112e4818561162b565b93506112f4818560208601611694565b6112fd81611788565b840191505092915050565b6000611313826115f1565b61131d818561163c565b935061132d818560208601611694565b80840191505092915050565b600061134660158361162b565b915061135182611799565b602082019050919050565b6000611369603c8361162b565b9150611374826117c2565b604082019050919050565b600061138c601b8361162b565b915061139782611811565b602082019050919050565b60006113ae8284611308565b915081905092915050565b60006020820190506113ce6000830184611203565b92915050565b600060208201905081810360008301526113ee8184611212565b905092915050565b600060608201905081810360008301526114108186611212565b9050818103602083015261142481856112cf565b9050818103604083015261143881846112cf565b9050949350505050565b60006020820190506114576000830184611287565b92915050565b60006060820190506114726000830186611287565b61147f6020830185611287565b818103604083015261149181846112cf565b9050949350505050565b600060208201905081810360008301526114b581846112cf565b905092915050565b600060408201905081810360008301526114d781856112cf565b905081810360208301526114eb81846112cf565b90509392505050565b6000602082019050818103600083015261150d81611339565b9050919050565b6000602082019050818103600083015261152d8161135c565b9050919050565b6000602082019050818103600083015261154d8161137f565b9050919050565b600061155e61156f565b905061156a82826116f9565b919050565b6000604051905090565b600067ffffffffffffffff82111561159457611593611759565b5b602082029050602081019050919050565b600067ffffffffffffffff8211156115c0576115bf611759565b5b6115c982611788565b9050602081019050919050565b6000819050602082019050919050565b600081519050919050565b600081519050919050565b6000602082019050919050565b600082825260208201905092915050565b600082825260208201905092915050565b600082825260208201905092915050565b600081905092915050565b600061165282611665565b9050919050565b60008115159050919050565b600073ffffffffffffffffffffffffffffffffffffffff82169050919050565b82818337600083830152505050565b60005b838110156116b2578082015181840152602081019050611697565b838111156116c1576000848401525b50505050565b600060028204905060018216806116df57607f821691505b602082108114156116f3576116f261172a565b5b50919050565b61170282611788565b810181811067ffffffffffffffff8211171561172157611720611759565b5b80604052505050565b7f4e487b7100000000000000000000000000000000000000000000000000000000600052602260045260246000fd5b7f4e487b7100000000000000000000000000000000000000000000000000000000600052604160045260246000fd5b6000601f19601f8301169050919050565b7f55736572206861736e2774207369676e656420696e0000000000000000000000600082015250565b7f5573657220697320616c7265616479207265676973746572656420616e64206360008201527f616e2774207265676973746572206d6f7265207468616e206f6e636500000000602082015250565b7f596f75206e65656420746f2072656769737465722066697273742e0000000000600082015250565b61184381611647565b811461184e57600080fd5b50565b61185a81611659565b811461186557600080fd5b5056fea2646970667358221220d3e55c22b48dc59d30c0b8015b4de4e192c3a03a48074cf695ba83f0bb8bbb7964736f6c63430008040033",
  "immutableReferences": {},
  "source": "// SPDX-License-Identifier: GPL-3.0\npragma solidity 0.8.4;\n\n        // uint vote;   // index of the voted proposal\ncontract AuditingFinal {\n\n\n\n    struct UserInfo {\n        bool registered;  // if true, that person already registered\n        bool signedIn;\n        string  username;\n    }\n  \n\n    // address public chairperson;\n    address public user;\n\n    constructor() public {\n        user = msg.sender;\n        users[user].registered = false;\n        users[user].signedIn = false;\n    }\n\n    string sayHellos = \"sayHello\";\n\n    // -----------------------------------START OF WORKING CODE TO SIGN IN AND REGISTER USER----------------------------------//\n    mapping(address => UserInfo) public users;\n\n    function sayHello() public view returns (string memory) {\n        return \"sayHello\";\n    }\n\n    function sayMessage(string memory m) public pure returns (string memory) {\n        return m;\n    }\n\n    function signIn() public returns (bool Calldata) {\n        require(users[user].registered, \"You need to register first.\");\n        users[user].signedIn = true;\n        return users[user].signedIn;\n    }\n\n    function register(string memory _username, bool value) public {\n        require(\n            !users[user].registered,\n            \"User is already registered and can't register more than once\"\n        );\n        users[user].username = _username;\n        users[user].registered = value;\n\n    }\n\n    function getUsername() public view returns (string memory) {\n        require(users[user].signedIn, \"User hasn't signed in\");\n        return users[user].username;\n    }\n\n    // ---------------------------------------- END OF WORKING CODE TO SIGN IN AND REGISTER USER----------------------------------//\n\n    //-----------------------------------START OF CODE USED TO STORE AND RETRIEVE HASH VALUES------------------------------------//\n\n    //             #KEY                              #\n    //  UNIQUE ID FOR CLOUD -------------> hash value, file name,\n\n    struct auditDetails {\n        string[] hashtags;\n        string cloudDataName;\n        string username;\n    }\n    mapping(string => auditDetails) public auditDatabase;\n\n    function setAuditDatabase(\n        string memory cloudDataID,\n        string[] memory _hashtags,\n        string memory _cloudDataName,\n        string memory _username\n    ) public {\n        auditDatabase[cloudDataID].hashtags = _hashtags;\n        auditDatabase[cloudDataID].cloudDataName = _cloudDataName;\n        // auditDatabase[_usesrname].username = _username;\n        auditDatabase[cloudDataID].username = _username;\n\n    }\n\n    function getAuditDatabase(string memory cloudDataID)\n        public\n        view\n        returns (\n            string[] memory,\n            string memory,\n            string memory\n        )\n    {\n        return (\n            auditDatabase[cloudDataID].hashtags,\n            auditDatabase[cloudDataID].cloudDataName,\n            auditDatabase[cloudDataID].username\n        );\n    }\n\n    function getMerkleRoot(string memory cloudDataID)\n        public\n        view\n        returns (string[] memory)\n    {\n        return (auditDatabase[cloudDataID].hashtags);\n    }\n}\n",
  "sourcePath": "/home/tobss/Desktop/FYPBlocAudit/app/contracts/AuditingFinal.sol",
  "compiler": {
    "name": "solc",
    "version": "0.8.4+commit.c7e474f2.Emscripten.clang"
  },
  "schemaVersion": "3.3.3",
  "updatedAt": "2021-05-14T23:57:06.516Z",
  "networkType": "ethereum",
  "devdoc": {
    "kind": "dev",
    "methods": {},
    "version": 1
  },
  "userdoc": {
    "kind": "user",
    "methods": {},
    "version": 1
  }
}